{
  "contractName": "LabCoin",
  "abi": [
    {
      "inputs": [],
      "stateMutability": "nonpayable",
      "type": "constructor"
    },
    {
      "anonymous": false,
      "inputs": [
        {
          "indexed": true,
          "internalType": "address",
          "name": "owner",
          "type": "address"
        },
        {
          "indexed": true,
          "internalType": "address",
          "name": "spender",
          "type": "address"
        },
        {
          "indexed": false,
          "internalType": "uint256",
          "name": "value",
          "type": "uint256"
        }
      ],
      "name": "Approval",
      "type": "event"
    },
    {
      "anonymous": false,
      "inputs": [
        {
          "indexed": true,
          "internalType": "address",
          "name": "from",
          "type": "address"
        },
        {
          "indexed": true,
          "internalType": "address",
          "name": "to",
          "type": "address"
        },
        {
          "indexed": false,
          "internalType": "uint256",
          "name": "value",
          "type": "uint256"
        }
      ],
      "name": "Transfer",
      "type": "event"
    },
    {
      "inputs": [
        {
          "internalType": "address",
          "name": "",
          "type": "address"
        },
        {
          "internalType": "address",
          "name": "",
          "type": "address"
        }
      ],
      "name": "allowance",
      "outputs": [
        {
          "internalType": "uint256",
          "name": "",
          "type": "uint256"
        }
      ],
      "stateMutability": "view",
      "type": "function",
      "constant": true
    },
    {
      "inputs": [],
      "name": "decimals",
      "outputs": [
        {
          "internalType": "uint8",
          "name": "",
          "type": "uint8"
        }
      ],
      "stateMutability": "view",
      "type": "function",
      "constant": true
    },
    {
      "inputs": [],
      "name": "name",
      "outputs": [
        {
          "internalType": "string",
          "name": "",
          "type": "string"
        }
      ],
      "stateMutability": "view",
      "type": "function",
      "constant": true
    },
    {
      "inputs": [],
      "name": "symbol",
      "outputs": [
        {
          "internalType": "string",
          "name": "",
          "type": "string"
        }
      ],
      "stateMutability": "view",
      "type": "function",
      "constant": true
    },
    {
      "inputs": [],
      "name": "totalSupply",
      "outputs": [
        {
          "internalType": "uint256",
          "name": "",
          "type": "uint256"
        }
      ],
      "stateMutability": "view",
      "type": "function",
      "constant": true
    },
    {
      "inputs": [
        {
          "internalType": "address",
          "name": "account",
          "type": "address"
        }
      ],
      "name": "balanceOf",
      "outputs": [
        {
          "internalType": "uint256",
          "name": "",
          "type": "uint256"
        }
      ],
      "stateMutability": "view",
      "type": "function",
      "constant": true
    },
    {
      "inputs": [
        {
          "internalType": "address",
          "name": "to",
          "type": "address"
        },
        {
          "internalType": "uint256",
          "name": "amount",
          "type": "uint256"
        }
      ],
      "name": "transfer",
      "outputs": [
        {
          "internalType": "bool",
          "name": "",
          "type": "bool"
        }
      ],
      "stateMutability": "nonpayable",
      "type": "function"
    },
    {
      "inputs": [
        {
          "internalType": "address",
          "name": "spender",
          "type": "address"
        },
        {
          "internalType": "uint256",
          "name": "amount",
          "type": "uint256"
        }
      ],
      "name": "approve",
      "outputs": [
        {
          "internalType": "bool",
          "name": "",
          "type": "bool"
        }
      ],
      "stateMutability": "nonpayable",
      "type": "function"
    },
    {
      "inputs": [
        {
          "internalType": "address",
          "name": "from",
          "type": "address"
        },
        {
          "internalType": "address",
          "name": "to",
          "type": "address"
        },
        {
          "internalType": "uint256",
          "name": "amount",
          "type": "uint256"
        }
      ],
      "name": "transferFrom",
      "outputs": [
        {
          "internalType": "bool",
          "name": "",
          "type": "bool"
        }
      ],
      "stateMutability": "nonpayable",
      "type": "function"
    },
    {
      "inputs": [],
      "name": "mint",
      "outputs": [
        {
          "internalType": "bool",
          "name": "",
          "type": "bool"
        }
      ],
      "stateMutability": "payable",
      "type": "function",
      "payable": true
    }
  ],
  "bytecode": "0x60806040526040518060400160405280600781526020017f4c6162436f696e0000000000000000000000000000000000000000000000000081525060009080519060200190620000519291906200013a565b506040518060400160405280600381526020017f434c430000000000000000000000000000000000000000000000000000000000815250600190805190602001906200009f9291906200013a565b506012600260006101000a81548160ff021916908360ff160217905550348015620000c957600080fd5b50683635c9adc5dea0000060056000828254620000e7919062000223565b92505081905550600554600360003373ffffffffffffffffffffffffffffffffffffffff1673ffffffffffffffffffffffffffffffffffffffff16815260200190815260200160002081905550620002e4565b8280546200014890620002af565b90600052602060002090601f0160209004810192826200016c5760008555620001b8565b82601f106200018757805160ff1916838001178555620001b8565b82800160010185558215620001b8579182015b82811115620001b75782518255916020019190600101906200019a565b5b509050620001c79190620001cb565b5090565b5b80821115620001e6576000816000905550600101620001cc565b5090565b6000819050919050565b7f4e487b7100000000000000000000000000000000000000000000000000000000600052601160045260246000fd5b60006200023082620001ea565b91506200023d83620001ea565b9250827fffffffffffffffffffffffffffffffffffffffffffffffffffffffffffffffff03821115620002755762000274620001f4565b5b828201905092915050565b7f4e487b7100000000000000000000000000000000000000000000000000000000600052602260045260246000fd5b60006002820490506001821680620002c857607f821691505b602082108103620002de57620002dd62000280565b5b50919050565b6112dc80620002f46000396000f3fe6080604052600436106100915760003560e01c8063313ce56711610059578063313ce5671461018457806370a08231146101af57806395d89b41146101ec578063a9059cbb14610217578063dd62ed3e1461025457610091565b806306fdde0314610096578063095ea7b3146100c15780631249c58b146100fe57806318160ddd1461011c57806323b872dd14610147575b600080fd5b3480156100a257600080fd5b506100ab610291565b6040516100b89190610b97565b60405180910390f35b3480156100cd57600080fd5b506100e860048036038101906100e39190610c52565b61031f565b6040516100f59190610cad565b60405180910390f35b61010661033b565b6040516101139190610cad565b60405180910390f35b34801561012857600080fd5b50610131610471565b60405161013e9190610cd7565b60405180910390f35b34801561015357600080fd5b5061016e60048036038101906101699190610cf2565b610477565b60405161017b9190610cad565b60405180910390f35b34801561019057600080fd5b5061019961049f565b6040516101a69190610d61565b60405180910390f35b3480156101bb57600080fd5b506101d660048036038101906101d19190610d7c565b6104b2565b6040516101e39190610cd7565b60405180910390f35b3480156101f857600080fd5b506102016104fb565b60405161020e9190610b97565b60405180910390f35b34801561022357600080fd5b5061023e60048036038101906102399190610c52565b610589565b60405161024b9190610cad565b60405180910390f35b34801561026057600080fd5b5061027b60048036038101906102769190610da9565b6105a5565b6040516102889190610cd7565b60405180910390f35b6000805461029e90610e18565b80601f01602080910402602001604051908101604052809291908181526020018280546102ca90610e18565b80156103175780601f106102ec57610100808354040283529160200191610317565b820191906000526020600020905b8154815290600101906020018083116102fa57829003601f168201915b505050505081565b6000803390506103308185856105ca565b600191505092915050565b60006658d15e176280003414610386576040517f08c379a000000000000000000000000000000000000000000000000000000000815260040161037d90610ebb565b60405180910390fd5b6000683635c9adc5dea00000905080600560008282546103a69190610f0a565b9250508190555080600360003373ffffffffffffffffffffffffffffffffffffffff1673ffffffffffffffffffffffffffffffffffffffff16815260200190815260200160002060008282546103fc9190610f0a565b925050819055503373ffffffffffffffffffffffffffffffffffffffff16600073ffffffffffffffffffffffffffffffffffffffff167fddf252ad1be2c89b69c2b068fc378daa952ba7f163c4a11628f55a4df523b3ef836040516104619190610cd7565b60405180910390a3600191505090565b60055481565b600080339050610488858285610793565b610493858585610892565b60019150509392505050565b600260009054906101000a900460ff1681565b6000600360008373ffffffffffffffffffffffffffffffffffffffff1673ffffffffffffffffffffffffffffffffffffffff168152602001908152602001600020549050919050565b6001805461050890610e18565b80601f016020809104026020016040519081016040528092919081815260200182805461053490610e18565b80156105815780601f1061055657610100808354040283529160200191610581565b820191906000526020600020905b81548152906001019060200180831161056457829003601f168201915b505050505081565b60008033905061059a818585610892565b600191505092915050565b6004602052816000526040600020602052806000526040600020600091509150505481565b600073ffffffffffffffffffffffffffffffffffffffff168373ffffffffffffffffffffffffffffffffffffffff1603610639576040517f08c379a000000000000000000000000000000000000000000000000000000000815260040161063090610fd2565b60405180910390fd5b600073ffffffffffffffffffffffffffffffffffffffff168273ffffffffffffffffffffffffffffffffffffffff16036106a8576040517f08c379a000000000000000000000000000000000000000000000000000000000815260040161069f90611064565b60405180910390fd5b80600460008573ffffffffffffffffffffffffffffffffffffffff1673ffffffffffffffffffffffffffffffffffffffff16815260200190815260200160002060008473ffffffffffffffffffffffffffffffffffffffff1673ffffffffffffffffffffffffffffffffffffffff168152602001908152602001600020819055508173ffffffffffffffffffffffffffffffffffffffff168373ffffffffffffffffffffffffffffffffffffffff167f8c5be1e5ebec7d5bd14f71427d1e84f3dd0314c0f7b2291e5b200ac8c7c3b925836040516107869190610cd7565b60405180910390a3505050565b6000600460008573ffffffffffffffffffffffffffffffffffffffff1673ffffffffffffffffffffffffffffffffffffffff16815260200190815260200160002060008473ffffffffffffffffffffffffffffffffffffffff1673ffffffffffffffffffffffffffffffffffffffff1681526020019081526020016000205490507fffffffffffffffffffffffffffffffffffffffffffffffffffffffffffffffff811461088c578181101561087e576040517f08c379a0000000000000000000000000000000000000000000000000000000008152600401610875906110d0565b60405180910390fd5b61088b84848484036105ca565b5b50505050565b600073ffffffffffffffffffffffffffffffffffffffff168373ffffffffffffffffffffffffffffffffffffffff1603610901576040517f08c379a00000000000000000000000000000000000000000000000000000000081526004016108f890611162565b60405180910390fd5b600073ffffffffffffffffffffffffffffffffffffffff168273ffffffffffffffffffffffffffffffffffffffff1603610970576040517f08c379a0000000000000000000000000000000000000000000000000000000008152600401610967906111f4565b60405180910390fd5b6000600360008573ffffffffffffffffffffffffffffffffffffffff1673ffffffffffffffffffffffffffffffffffffffff168152602001908152602001600020549050818110156109f7576040517f08c379a00000000000000000000000000000000000000000000000000000000081526004016109ee90611286565b60405180910390fd5b818103600360008673ffffffffffffffffffffffffffffffffffffffff1673ffffffffffffffffffffffffffffffffffffffff1681526020019081526020016000208190555081600360008573ffffffffffffffffffffffffffffffffffffffff1673ffffffffffffffffffffffffffffffffffffffff1681526020019081526020016000206000828254610a8c9190610f0a565b925050819055508273ffffffffffffffffffffffffffffffffffffffff168473ffffffffffffffffffffffffffffffffffffffff167fddf252ad1be2c89b69c2b068fc378daa952ba7f163c4a11628f55a4df523b3ef84604051610af09190610cd7565b60405180910390a350505050565b600081519050919050565b600082825260208201905092915050565b60005b83811015610b38578082015181840152602081019050610b1d565b83811115610b47576000848401525b50505050565b6000601f19601f8301169050919050565b6000610b6982610afe565b610b738185610b09565b9350610b83818560208601610b1a565b610b8c81610b4d565b840191505092915050565b60006020820190508181036000830152610bb18184610b5e565b905092915050565b600080fd5b600073ffffffffffffffffffffffffffffffffffffffff82169050919050565b6000610be982610bbe565b9050919050565b610bf981610bde565b8114610c0457600080fd5b50565b600081359050610c1681610bf0565b92915050565b6000819050919050565b610c2f81610c1c565b8114610c3a57600080fd5b50565b600081359050610c4c81610c26565b92915050565b60008060408385031215610c6957610c68610bb9565b5b6000610c7785828601610c07565b9250506020610c8885828601610c3d565b9150509250929050565b60008115159050919050565b610ca781610c92565b82525050565b6000602082019050610cc26000830184610c9e565b92915050565b610cd181610c1c565b82525050565b6000602082019050610cec6000830184610cc8565b92915050565b600080600060608486031215610d0b57610d0a610bb9565b5b6000610d1986828701610c07565b9350506020610d2a86828701610c07565b9250506040610d3b86828701610c3d565b9150509250925092565b600060ff82169050919050565b610d5b81610d45565b82525050565b6000602082019050610d766000830184610d52565b92915050565b600060208284031215610d9257610d91610bb9565b5b6000610da084828501610c07565b91505092915050565b60008060408385031215610dc057610dbf610bb9565b5b6000610dce85828601610c07565b9250506020610ddf85828601610c07565b9150509250929050565b7f4e487b7100000000000000000000000000000000000000000000000000000000600052602260045260246000fd5b60006002820490506001821680610e3057607f821691505b602082108103610e4357610e42610de9565b5b50919050565b7f50617261207061727469636970617220656e76696520302e303235206574686560008201527f7200000000000000000000000000000000000000000000000000000000000000602082015250565b6000610ea5602183610b09565b9150610eb082610e49565b604082019050919050565b60006020820190508181036000830152610ed481610e98565b9050919050565b7f4e487b7100000000000000000000000000000000000000000000000000000000600052601160045260246000fd5b6000610f1582610c1c565b9150610f2083610c1c565b9250827fffffffffffffffffffffffffffffffffffffffffffffffffffffffffffffffff03821115610f5557610f54610edb565b5b828201905092915050565b7f45524332303a20617070726f76652066726f6d20746865207a65726f2061646460008201527f7265737300000000000000000000000000000000000000000000000000000000602082015250565b6000610fbc602483610b09565b9150610fc782610f60565b604082019050919050565b60006020820190508181036000830152610feb81610faf565b9050919050565b7f45524332303a20617070726f766520746f20746865207a65726f20616464726560008201527f7373000000000000000000000000000000000000000000000000000000000000602082015250565b600061104e602283610b09565b915061105982610ff2565b604082019050919050565b6000602082019050818103600083015261107d81611041565b9050919050565b7f45524332303a20696e73756666696369656e7420616c6c6f77616e6365000000600082015250565b60006110ba601d83610b09565b91506110c582611084565b602082019050919050565b600060208201905081810360008301526110e9816110ad565b9050919050565b7f45524332303a207472616e736665722066726f6d20746865207a65726f20616460008201527f6472657373000000000000000000000000000000000000000000000000000000602082015250565b600061114c602583610b09565b9150611157826110f0565b604082019050919050565b6000602082019050818103600083015261117b8161113f565b9050919050565b7f45524332303a207472616e7366657220746f20746865207a65726f206164647260008201527f6573730000000000000000000000000000000000000000000000000000000000602082015250565b60006111de602383610b09565b91506111e982611182565b604082019050919050565b6000602082019050818103600083015261120d816111d1565b9050919050565b7f45524332303a207472616e7366657220616d6f756e742065786365656473206260008201527f616c616e63650000000000000000000000000000000000000000000000000000602082015250565b6000611270602683610b09565b915061127b82611214565b604082019050919050565b6000602082019050818103600083015261129f81611263565b905091905056fea264697066735822122009ea722254a91f1b837eb70e658df5b66d377e01e220b14e8b8ff678532dfb0a64736f6c634300080d0033",
  "immutableReferences": {},
  "source": "//SPDX-License-Identifier: UNLICENSED\r\npragma solidity ^0.8.13;\r\nimport \"@openzeppelin/contracts/token/ERC20/IERC20.sol\";\r\n\r\ncontract LabCoin is IERC20 {\r\n    string public name = \"LabCoin\";\r\n    string public symbol = \"CLC\";\r\n    uint8 public decimals = 18;\r\n    mapping(address => uint256) private _balanceOf;\r\n    mapping(address => mapping(address => uint256)) public override allowance;\r\n    uint256 public override totalSupply;\r\n\r\n    constructor() {\r\n        totalSupply += 1000e18;\r\n        _balanceOf[msg.sender] = totalSupply;\r\n    }\r\n\r\n    function balanceOf(address account) public view override returns (uint256) {\r\n        return _balanceOf[account];\r\n    }\r\n\r\n    function transfer(address to, uint256 amount) public override returns (bool) {\r\n        address owner = msg.sender;\r\n        _transfer(owner, to, amount);\r\n        return true;\r\n    }\r\n\r\n    function _transfer(\r\n        address from,\r\n        address to,\r\n        uint256 amount\r\n    ) private {\r\n        require(from != address(0), \"ERC20: transfer from the zero address\");\r\n        require(to != address(0), \"ERC20: transfer to the zero address\");\r\n\r\n        uint256 fromBalance = _balanceOf[from];\r\n        require(\r\n            fromBalance >= amount,\r\n            \"ERC20: transfer amount exceeds balance\"\r\n        );\r\n        unchecked {\r\n            _balanceOf[from] = fromBalance - amount;\r\n        }\r\n        _balanceOf[to] += amount;\r\n\r\n        emit Transfer(from, to, amount);\r\n    }\r\n\r\n    function approve(address spender, uint256 amount) public override returns (bool) {\r\n        address owner = msg.sender;\r\n        _approve(owner, spender, amount);\r\n        return true;\r\n    }\r\n\r\n    function _approve(\r\n        address owner,\r\n        address spender,\r\n        uint256 amount\r\n    ) private {\r\n        require(owner != address(0), \"ERC20: approve from the zero address\");\r\n        require(spender != address(0), \"ERC20: approve to the zero address\");\r\n\r\n        allowance[owner][spender] = amount;\r\n        emit Approval(owner, spender, amount);\r\n    }\r\n\r\n    function transferFrom(\r\n        address from,\r\n        address to,\r\n        uint256 amount\r\n    ) public override returns (bool) {\r\n        address spender = msg.sender;\r\n        _spendAllowance(from, spender, amount);\r\n        _transfer(from, to, amount);\r\n        return true;\r\n    }\r\n\r\n    function _spendAllowance(\r\n        address owner,\r\n        address spender,\r\n        uint256 amount\r\n    ) private {\r\n        uint256 currentAllowance = allowance[owner][spender];\r\n        if (currentAllowance != type(uint256).max) {\r\n            require(\r\n                currentAllowance >= amount,\r\n                \"ERC20: insufficient allowance\"\r\n            );\r\n            unchecked {\r\n                _approve(owner, spender, currentAllowance - amount);\r\n            }\r\n        }\r\n    }\r\n\r\n    function mint() external payable returns (bool) {\r\n        require(msg.value == 0.025 ether, \"Para participar envie 0.025 ether\");\r\n        uint256 amount = 1000e18;\r\n        totalSupply += amount;\r\n        _balanceOf[msg.sender] += amount;\r\n        emit Transfer(address(0), msg.sender, amount);\r\n        return true;\r\n    }\r\n}",
  "sourcePath": "D:\\GITHUB - PESSOAL\\Web3--Labs\\contracts\\LabCoin.sol",
  "compiler": {
    "name": "solc",
    "version": "0.8.13+commit.abaa5c0e.Emscripten.clang"
  },
  "schemaVersion": "3.4.7",
  "updatedAt": "2022-05-31T23:47:50.193Z",
  "networkType": "ethereum",
  "devdoc": {
    "kind": "dev",
    "methods": {
      "approve(address,uint256)": {
        "details": "Sets `amount` as the allowance of `spender` over the caller's tokens. Returns a boolean value indicating whether the operation succeeded. IMPORTANT: Beware that changing an allowance with this method brings the risk that someone may use both the old and the new allowance by unfortunate transaction ordering. One possible solution to mitigate this race condition is to first reduce the spender's allowance to 0 and set the desired value afterwards: https://github.com/ethereum/EIPs/issues/20#issuecomment-263524729 Emits an {Approval} event."
      },
      "balanceOf(address)": {
        "details": "Returns the amount of tokens owned by `account`."
      },
      "transfer(address,uint256)": {
        "details": "Moves `amount` tokens from the caller's account to `to`. Returns a boolean value indicating whether the operation succeeded. Emits a {Transfer} event."
      },
      "transferFrom(address,address,uint256)": {
        "details": "Moves `amount` tokens from `from` to `to` using the allowance mechanism. `amount` is then deducted from the caller's allowance. Returns a boolean value indicating whether the operation succeeded. Emits a {Transfer} event."
      }
    },
    "stateVariables": {
      "allowance": {
        "details": "Returns the remaining number of tokens that `spender` will be allowed to spend on behalf of `owner` through {transferFrom}. This is zero by default. This value changes when {approve} or {transferFrom} are called."
      },
      "totalSupply": {
        "details": "Returns the amount of tokens in existence."
      }
    },
    "version": 1
  },
  "userdoc": {
    "kind": "user",
    "methods": {},
    "version": 1
  }
}