{
  "contractName": "Lottery",
  "abi": [
    {
      "inputs": [
        {
          "internalType": "address",
          "name": "_labCoin",
          "type": "address"
        }
      ],
      "stateMutability": "nonpayable",
      "type": "constructor"
    },
    {
      "anonymous": false,
      "inputs": [
        {
          "indexed": false,
          "internalType": "address",
          "name": "_player",
          "type": "address"
        }
      ],
      "name": "NewPlayerAdd",
      "type": "event"
    },
    {
      "anonymous": false,
      "inputs": [
        {
          "indexed": false,
          "internalType": "address",
          "name": "_winner",
          "type": "address"
        }
      ],
      "name": "Winner",
      "type": "event"
    },
    {
      "inputs": [],
      "name": "owner",
      "outputs": [
        {
          "internalType": "address",
          "name": "",
          "type": "address"
        }
      ],
      "stateMutability": "view",
      "type": "function",
      "constant": true
    },
    {
      "inputs": [
        {
          "internalType": "uint256",
          "name": "",
          "type": "uint256"
        }
      ],
      "name": "players",
      "outputs": [
        {
          "internalType": "address",
          "name": "",
          "type": "address"
        }
      ],
      "stateMutability": "view",
      "type": "function",
      "constant": true
    },
    {
      "inputs": [],
      "name": "getBalance",
      "outputs": [
        {
          "internalType": "uint256",
          "name": "",
          "type": "uint256"
        }
      ],
      "stateMutability": "view",
      "type": "function",
      "constant": true
    },
    {
      "inputs": [],
      "name": "enter",
      "outputs": [],
      "stateMutability": "nonpayable",
      "type": "function"
    },
    {
      "inputs": [
        {
          "internalType": "string",
          "name": "_secretWord",
          "type": "string"
        }
      ],
      "name": "pickWinner",
      "outputs": [],
      "stateMutability": "nonpayable",
      "type": "function"
    }
  ],
  "bytecode": "0x60806040523480156200001157600080fd5b50604051620010c4380380620010c483398181016040528101906200003791906200012a565b33600160006101000a81548173ffffffffffffffffffffffffffffffffffffffff021916908373ffffffffffffffffffffffffffffffffffffffff16021790555080600260006101000a81548173ffffffffffffffffffffffffffffffffffffffff021916908373ffffffffffffffffffffffffffffffffffffffff160217905550506200015c565b600080fd5b600073ffffffffffffffffffffffffffffffffffffffff82169050919050565b6000620000f282620000c5565b9050919050565b6200010481620000e5565b81146200011057600080fd5b50565b6000815190506200012481620000f9565b92915050565b600060208284031215620001435762000142620000c0565b5b6000620001538482850162000113565b91505092915050565b610f58806200016c6000396000f3fe608060405234801561001057600080fd5b50600436106100575760003560e01c806312065fe01461005c57806327e250691461007a5780638da5cb5b14610096578063e97dcb62146100b4578063f71d96cb146100be575b600080fd5b6100646100ee565b60405161007191906107f6565b60405180910390f35b610094600480360381019061008f919061096b565b610191565b005b61009e6104e1565b6040516100ab91906109f5565b60405180910390f35b6100bc610507565b005b6100d860048036038101906100d39190610a3c565b6106b9565b6040516100e591906109f5565b60405180910390f35b6000600260009054906101000a900473ffffffffffffffffffffffffffffffffffffffff1673ffffffffffffffffffffffffffffffffffffffff166370a08231306040518263ffffffff1660e01b815260040161014b91906109f5565b602060405180830381865afa158015610168573d6000803e3d6000fd5b505050506040513d601f19601f8201168201806040525081019061018c9190610a7e565b905090565b600160009054906101000a900473ffffffffffffffffffffffffffffffffffffffff1673ffffffffffffffffffffffffffffffffffffffff163373ffffffffffffffffffffffffffffffffffffffff1614610221576040517f08c379a000000000000000000000000000000000000000000000000000000000815260040161021890610b08565b60405180910390fd5b6003600080549050101561023457600080fd5b600061023e6100ee565b9050600061024b836106f8565b9050600080805490508261025f9190610b57565b9050600080828154811061027657610275610b88565b5b9060005260206000200160009054906101000a900473ffffffffffffffffffffffffffffffffffffffff16905060006064600a866102b49190610be6565b6102be9190610c40565b905060006064605a876102d19190610be6565b6102db9190610c40565b9050600260009054906101000a900473ffffffffffffffffffffffffffffffffffffffff1673ffffffffffffffffffffffffffffffffffffffff1663a9059cbb84836040518363ffffffff1660e01b815260040161033a929190610c71565b6020604051808303816000875af1158015610359573d6000803e3d6000fd5b505050506040513d601f19601f8201168201806040525081019061037d9190610cd2565b50600260009054906101000a900473ffffffffffffffffffffffffffffffffffffffff1673ffffffffffffffffffffffffffffffffffffffff1663a9059cbb600160009054906101000a900473ffffffffffffffffffffffffffffffffffffffff16846040518363ffffffff1660e01b81526004016103fd929190610c71565b6020604051808303816000875af115801561041c573d6000803e3d6000fd5b505050506040513d601f19601f820116820180604052508101906104409190610cd2565b50600067ffffffffffffffff81111561045c5761045b610840565b5b60405190808252806020026020018201604052801561048a5781602001602082028036833780820191505090505b50600090805190602001906104a0929190610736565b507f745c90b656b4aafe296c8ca35aeacfe56cb96c90e1d320e5da643fff1051b6c0836040516104d091906109f5565b60405180910390a150505050505050565b600160009054906101000a900473ffffffffffffffffffffffffffffffffffffffff1681565b60006105116100ee565b9050600260009054906101000a900473ffffffffffffffffffffffffffffffffffffffff1673ffffffffffffffffffffffffffffffffffffffff166323b872dd3330680ad78ebc5ac62000006040518463ffffffff1660e01b815260040161057b93929190610d44565b6020604051808303816000875af115801561059a573d6000803e3d6000fd5b505050506040513d601f19601f820116820180604052508101906105be9190610cd2565b506105c76100ee565b680ad78ebc5ac6200000826105dc9190610d7b565b1461061c576040517f08c379a000000000000000000000000000000000000000000000000000000000815260040161061390610e1d565b60405180910390fd5b6000339080600181540180825580915050600190039060005260206000200160009091909190916101000a81548173ffffffffffffffffffffffffffffffffffffffff021916908373ffffffffffffffffffffffffffffffffffffffff1602179055507f50bc583ce0bd2268f96685d5504d7c50b940295c2e437d5e8f49f9ed9302b75d336040516106ae91906109f5565b60405180910390a150565b600081815481106106c957600080fd5b906000526020600020016000915054906101000a900473ffffffffffffffffffffffffffffffffffffffff1681565b60004442600080549050846040516020016107169493929190610ed8565b6040516020818303038152906040528051906020012060001c9050919050565b8280548282559060005260206000209081019282156107af579160200282015b828111156107ae5782518260006101000a81548173ffffffffffffffffffffffffffffffffffffffff021916908373ffffffffffffffffffffffffffffffffffffffff16021790555091602001919060010190610756565b5b5090506107bc91906107c0565b5090565b5b808211156107d95760008160009055506001016107c1565b5090565b6000819050919050565b6107f0816107dd565b82525050565b600060208201905061080b60008301846107e7565b92915050565b6000604051905090565b600080fd5b600080fd5b600080fd5b600080fd5b6000601f19601f8301169050919050565b7f4e487b7100000000000000000000000000000000000000000000000000000000600052604160045260246000fd5b6108788261082f565b810181811067ffffffffffffffff8211171561089757610896610840565b5b80604052505050565b60006108aa610811565b90506108b6828261086f565b919050565b600067ffffffffffffffff8211156108d6576108d5610840565b5b6108df8261082f565b9050602081019050919050565b82818337600083830152505050565b600061090e610909846108bb565b6108a0565b90508281526020810184848401111561092a5761092961082a565b5b6109358482856108ec565b509392505050565b600082601f83011261095257610951610825565b5b81356109628482602086016108fb565b91505092915050565b6000602082840312156109815761098061081b565b5b600082013567ffffffffffffffff81111561099f5761099e610820565b5b6109ab8482850161093d565b91505092915050565b600073ffffffffffffffffffffffffffffffffffffffff82169050919050565b60006109df826109b4565b9050919050565b6109ef816109d4565b82525050565b6000602082019050610a0a60008301846109e6565b92915050565b610a19816107dd565b8114610a2457600080fd5b50565b600081359050610a3681610a10565b92915050565b600060208284031215610a5257610a5161081b565b5b6000610a6084828501610a27565b91505092915050565b600081519050610a7881610a10565b92915050565b600060208284031215610a9457610a9361081b565b5b6000610aa284828501610a69565b91505092915050565b600082825260208201905092915050565b7f4e6f70732c206f6e6c7920746865206f776e6572000000000000000000000000600082015250565b6000610af2601483610aab565b9150610afd82610abc565b602082019050919050565b60006020820190508181036000830152610b2181610ae5565b9050919050565b7f4e487b7100000000000000000000000000000000000000000000000000000000600052601260045260246000fd5b6000610b62826107dd565b9150610b6d836107dd565b925082610b7d57610b7c610b28565b5b828206905092915050565b7f4e487b7100000000000000000000000000000000000000000000000000000000600052603260045260246000fd5b7f4e487b7100000000000000000000000000000000000000000000000000000000600052601160045260246000fd5b6000610bf1826107dd565b9150610bfc836107dd565b9250817fffffffffffffffffffffffffffffffffffffffffffffffffffffffffffffffff0483118215151615610c3557610c34610bb7565b5b828202905092915050565b6000610c4b826107dd565b9150610c56836107dd565b925082610c6657610c65610b28565b5b828204905092915050565b6000604082019050610c8660008301856109e6565b610c9360208301846107e7565b9392505050565b60008115159050919050565b610caf81610c9a565b8114610cba57600080fd5b50565b600081519050610ccc81610ca6565b92915050565b600060208284031215610ce857610ce761081b565b5b6000610cf684828501610cbd565b91505092915050565b6000819050919050565b6000819050919050565b6000610d2e610d29610d2484610cff565b610d09565b6107dd565b9050919050565b610d3e81610d13565b82525050565b6000606082019050610d5960008301866109e6565b610d6660208301856109e6565b610d736040830184610d35565b949350505050565b6000610d86826107dd565b9150610d91836107dd565b9250827fffffffffffffffffffffffffffffffffffffffffffffffffffffffffffffffff03821115610dc657610dc5610bb7565b5b828201905092915050565b7f42616c616e636520696e636f7272656374000000000000000000000000000000600082015250565b6000610e07601183610aab565b9150610e1282610dd1565b602082019050919050565b60006020820190508181036000830152610e3681610dfa565b9050919050565b6000819050919050565b610e58610e53826107dd565b610e3d565b82525050565b600081519050919050565b600081905092915050565b60005b83811015610e92578082015181840152602081019050610e77565b83811115610ea1576000848401525b50505050565b6000610eb282610e5e565b610ebc8185610e69565b9350610ecc818560208601610e74565b80840191505092915050565b6000610ee48287610e47565b602082019150610ef48286610e47565b602082019150610f048285610e47565b602082019150610f148284610ea7565b91508190509594505050505056fea26469706673582212205acea6ea5243285ff609b3ddd71b6e9b97dcc20a6a8977f7586fe4753cb5bc1764736f6c634300080d0033",
  "immutableReferences": {},
  "source": "//SPDX-License-Identifier: UNLICENSED\r\npragma solidity ^0.8.13;\r\nimport \"./ILabCoin.sol\";\r\ncontract Lottery {\r\n    event NewPlayerAdd(address _player);\r\n    event Winner(address _winner);\r\n    address[] public players;\r\n    address public owner;\r\n    ILabCoin private labCoin;\r\n\r\n    constructor(address _labCoin) {\r\n        owner = msg.sender;\r\n        labCoin = ILabCoin(_labCoin);\r\n    }\r\n\r\n    modifier onlyOwner() {\r\n        require(msg.sender == owner, \"Nops, only the owner\");\r\n        _;\r\n    }\r\n\r\n    function getBalance() public view returns (uint256) {\r\n        return labCoin.balanceOf(address(this));\r\n    }\r\n\r\n    function enter() external {\r\n        uint balanceBefore = getBalance();\r\n        labCoin.transferFrom(msg.sender,address(this), 200e18); \r\n        require(balanceBefore+200e18 ==  getBalance(),\"Balance incorrect\");\r\n        players.push(msg.sender);\r\n        emit NewPlayerAdd(msg.sender);\r\n    }\r\n\r\n    function pickWinner(string memory _secretWord) external onlyOwner {\r\n        require (players.length >= 3);\r\n        uint _balance = getBalance();\r\n        \r\n        uint number = pseudoRandomNumber(_secretWord);\r\n        uint index = number % players.length;\r\n        address winner = players[index];\r\n        uint managerFee = (_balance * 10 ) / 100;\r\n        uint winnerPrize = (_balance * 90 ) / 100;\r\n\r\n        labCoin.transfer(winner, winnerPrize);\r\n        labCoin.transfer(owner, managerFee);\r\n        \r\n        players = new address[](0);\r\n        emit Winner(winner);\r\n        \r\n    }\r\n\r\n    function pseudoRandomNumber(string memory _secretWord)\r\n        internal\r\n        view\r\n        returns (uint256)\r\n    {\r\n        return\r\n            uint256(\r\n                keccak256(\r\n                    abi.encodePacked(\r\n                        block.difficulty,\r\n                        block.timestamp,\r\n                        players.length,\r\n                        _secretWord\r\n                    )\r\n                )\r\n            );\r\n    }\r\n}",
  "sourcePath": "D:\\GITHUB - PESSOAL\\Web3--Labs\\contracts\\Lottery.sol",
  "compiler": {
    "name": "solc",
    "version": "0.8.13+commit.abaa5c0e.Emscripten.clang"
  },
  "schemaVersion": "3.4.7",
  "updatedAt": "2022-05-31T23:47:50.199Z",
  "networkType": "ethereum",
  "devdoc": {
    "kind": "dev",
    "methods": {},
    "version": 1
  },
  "userdoc": {
    "kind": "user",
    "methods": {},
    "version": 1
  }
}