{
  "contractName": "Lottery",
  "abi": [
    {
      "inputs": [
        {
          "internalType": "address",
          "name": "_labCoin",
          "type": "address"
        }
      ],
      "stateMutability": "nonpayable",
      "type": "constructor"
    },
    {
      "anonymous": false,
      "inputs": [
        {
          "indexed": false,
          "internalType": "address",
          "name": "_player",
          "type": "address"
        }
      ],
      "name": "NewPlayerAdd",
      "type": "event"
    },
    {
      "anonymous": false,
      "inputs": [
        {
          "indexed": false,
          "internalType": "address",
          "name": "_winner",
          "type": "address"
        }
      ],
      "name": "Winner",
      "type": "event"
    },
    {
      "inputs": [],
      "name": "owner",
      "outputs": [
        {
          "internalType": "address",
          "name": "",
          "type": "address"
        }
      ],
      "stateMutability": "view",
      "type": "function",
      "constant": true
    },
    {
      "inputs": [],
      "name": "getBalance",
      "outputs": [
        {
          "internalType": "uint256",
          "name": "",
          "type": "uint256"
        }
      ],
      "stateMutability": "view",
      "type": "function",
      "constant": true
    },
    {
      "inputs": [],
      "name": "getPlayers",
      "outputs": [
        {
          "internalType": "address[]",
          "name": "",
          "type": "address[]"
        }
      ],
      "stateMutability": "view",
      "type": "function",
      "constant": true
    },
    {
      "inputs": [],
      "name": "enter",
      "outputs": [],
      "stateMutability": "nonpayable",
      "type": "function"
    },
    {
      "inputs": [
        {
          "internalType": "string",
          "name": "_secretWord",
          "type": "string"
        }
      ],
      "name": "pickWinner",
      "outputs": [],
      "stateMutability": "nonpayable",
      "type": "function"
    }
  ],
  "bytecode": "0x60806040523480156200001157600080fd5b506040516200119f3803806200119f83398181016040528101906200003791906200012a565b33600160006101000a81548173ffffffffffffffffffffffffffffffffffffffff021916908373ffffffffffffffffffffffffffffffffffffffff16021790555080600260006101000a81548173ffffffffffffffffffffffffffffffffffffffff021916908373ffffffffffffffffffffffffffffffffffffffff160217905550506200015c565b600080fd5b600073ffffffffffffffffffffffffffffffffffffffff82169050919050565b6000620000f282620000c5565b9050919050565b6200010481620000e5565b81146200011057600080fd5b50565b6000815190506200012481620000f9565b92915050565b600060208284031215620001435762000142620000c0565b5b6000620001538482850162000113565b91505092915050565b611033806200016c6000396000f3fe608060405234801561001057600080fd5b50600436106100575760003560e01c806312065fe01461005c57806327e250691461007a5780638b5b9ccc146100965780638da5cb5b146100b4578063e97dcb62146100d2575b600080fd5b6100646100dc565b6040516100719190610833565b60405180910390f35b610094600480360381019061008f91906109a8565b61017f565b005b61009e6104cf565b6040516100ab9190610ae1565b60405180910390f35b6100bc61055d565b6040516100c99190610b12565b60405180910390f35b6100da610583565b005b6000600260009054906101000a900473ffffffffffffffffffffffffffffffffffffffff1673ffffffffffffffffffffffffffffffffffffffff166370a08231306040518263ffffffff1660e01b81526004016101399190610b12565b602060405180830381865afa158015610156573d6000803e3d6000fd5b505050506040513d601f19601f8201168201806040525081019061017a9190610b59565b905090565b600160009054906101000a900473ffffffffffffffffffffffffffffffffffffffff1673ffffffffffffffffffffffffffffffffffffffff163373ffffffffffffffffffffffffffffffffffffffff161461020f576040517f08c379a000000000000000000000000000000000000000000000000000000000815260040161020690610be3565b60405180910390fd5b6003600080549050101561022257600080fd5b600061022c6100dc565b9050600061023983610735565b9050600080805490508261024d9190610c32565b9050600080828154811061026457610263610c63565b5b9060005260206000200160009054906101000a900473ffffffffffffffffffffffffffffffffffffffff16905060006064600a866102a29190610cc1565b6102ac9190610d1b565b905060006064605a876102bf9190610cc1565b6102c99190610d1b565b9050600260009054906101000a900473ffffffffffffffffffffffffffffffffffffffff1673ffffffffffffffffffffffffffffffffffffffff1663a9059cbb84836040518363ffffffff1660e01b8152600401610328929190610d4c565b6020604051808303816000875af1158015610347573d6000803e3d6000fd5b505050506040513d601f19601f8201168201806040525081019061036b9190610dad565b50600260009054906101000a900473ffffffffffffffffffffffffffffffffffffffff1673ffffffffffffffffffffffffffffffffffffffff1663a9059cbb600160009054906101000a900473ffffffffffffffffffffffffffffffffffffffff16846040518363ffffffff1660e01b81526004016103eb929190610d4c565b6020604051808303816000875af115801561040a573d6000803e3d6000fd5b505050506040513d601f19601f8201168201806040525081019061042e9190610dad565b50600067ffffffffffffffff81111561044a5761044961087d565b5b6040519080825280602002602001820160405280156104785781602001602082028036833780820191505090505b506000908051906020019061048e929190610773565b507f745c90b656b4aafe296c8ca35aeacfe56cb96c90e1d320e5da643fff1051b6c0836040516104be9190610b12565b60405180910390a150505050505050565b6060600080548060200260200160405190810160405280929190818152602001828054801561055357602002820191906000526020600020905b8160009054906101000a900473ffffffffffffffffffffffffffffffffffffffff1673ffffffffffffffffffffffffffffffffffffffff1681526020019060010190808311610509575b5050505050905090565b600160009054906101000a900473ffffffffffffffffffffffffffffffffffffffff1681565b600061058d6100dc565b9050600260009054906101000a900473ffffffffffffffffffffffffffffffffffffffff1673ffffffffffffffffffffffffffffffffffffffff166323b872dd3330680ad78ebc5ac62000006040518463ffffffff1660e01b81526004016105f793929190610e1f565b6020604051808303816000875af1158015610616573d6000803e3d6000fd5b505050506040513d601f19601f8201168201806040525081019061063a9190610dad565b506106436100dc565b680ad78ebc5ac6200000826106589190610e56565b14610698576040517f08c379a000000000000000000000000000000000000000000000000000000000815260040161068f90610ef8565b60405180910390fd5b6000339080600181540180825580915050600190039060005260206000200160009091909190916101000a81548173ffffffffffffffffffffffffffffffffffffffff021916908373ffffffffffffffffffffffffffffffffffffffff1602179055507f50bc583ce0bd2268f96685d5504d7c50b940295c2e437d5e8f49f9ed9302b75d3360405161072a9190610b12565b60405180910390a150565b60004442600080549050846040516020016107539493929190610fb3565b6040516020818303038152906040528051906020012060001c9050919050565b8280548282559060005260206000209081019282156107ec579160200282015b828111156107eb5782518260006101000a81548173ffffffffffffffffffffffffffffffffffffffff021916908373ffffffffffffffffffffffffffffffffffffffff16021790555091602001919060010190610793565b5b5090506107f991906107fd565b5090565b5b808211156108165760008160009055506001016107fe565b5090565b6000819050919050565b61082d8161081a565b82525050565b60006020820190506108486000830184610824565b92915050565b6000604051905090565b600080fd5b600080fd5b600080fd5b600080fd5b6000601f19601f8301169050919050565b7f4e487b7100000000000000000000000000000000000000000000000000000000600052604160045260246000fd5b6108b58261086c565b810181811067ffffffffffffffff821117156108d4576108d361087d565b5b80604052505050565b60006108e761084e565b90506108f382826108ac565b919050565b600067ffffffffffffffff8211156109135761091261087d565b5b61091c8261086c565b9050602081019050919050565b82818337600083830152505050565b600061094b610946846108f8565b6108dd565b90508281526020810184848401111561096757610966610867565b5b610972848285610929565b509392505050565b600082601f83011261098f5761098e610862565b5b813561099f848260208601610938565b91505092915050565b6000602082840312156109be576109bd610858565b5b600082013567ffffffffffffffff8111156109dc576109db61085d565b5b6109e88482850161097a565b91505092915050565b600081519050919050565b600082825260208201905092915050565b6000819050602082019050919050565b600073ffffffffffffffffffffffffffffffffffffffff82169050919050565b6000610a4882610a1d565b9050919050565b610a5881610a3d565b82525050565b6000610a6a8383610a4f565b60208301905092915050565b6000602082019050919050565b6000610a8e826109f1565b610a9881856109fc565b9350610aa383610a0d565b8060005b83811015610ad4578151610abb8882610a5e565b9750610ac683610a76565b925050600181019050610aa7565b5085935050505092915050565b60006020820190508181036000830152610afb8184610a83565b905092915050565b610b0c81610a3d565b82525050565b6000602082019050610b276000830184610b03565b92915050565b610b368161081a565b8114610b4157600080fd5b50565b600081519050610b5381610b2d565b92915050565b600060208284031215610b6f57610b6e610858565b5b6000610b7d84828501610b44565b91505092915050565b600082825260208201905092915050565b7f4e6f70732c206f6e6c7920746865206f776e6572000000000000000000000000600082015250565b6000610bcd601483610b86565b9150610bd882610b97565b602082019050919050565b60006020820190508181036000830152610bfc81610bc0565b9050919050565b7f4e487b7100000000000000000000000000000000000000000000000000000000600052601260045260246000fd5b6000610c3d8261081a565b9150610c488361081a565b925082610c5857610c57610c03565b5b828206905092915050565b7f4e487b7100000000000000000000000000000000000000000000000000000000600052603260045260246000fd5b7f4e487b7100000000000000000000000000000000000000000000000000000000600052601160045260246000fd5b6000610ccc8261081a565b9150610cd78361081a565b9250817fffffffffffffffffffffffffffffffffffffffffffffffffffffffffffffffff0483118215151615610d1057610d0f610c92565b5b828202905092915050565b6000610d268261081a565b9150610d318361081a565b925082610d4157610d40610c03565b5b828204905092915050565b6000604082019050610d616000830185610b03565b610d6e6020830184610824565b9392505050565b60008115159050919050565b610d8a81610d75565b8114610d9557600080fd5b50565b600081519050610da781610d81565b92915050565b600060208284031215610dc357610dc2610858565b5b6000610dd184828501610d98565b91505092915050565b6000819050919050565b6000819050919050565b6000610e09610e04610dff84610dda565b610de4565b61081a565b9050919050565b610e1981610dee565b82525050565b6000606082019050610e346000830186610b03565b610e416020830185610b03565b610e4e6040830184610e10565b949350505050565b6000610e618261081a565b9150610e6c8361081a565b9250827fffffffffffffffffffffffffffffffffffffffffffffffffffffffffffffffff03821115610ea157610ea0610c92565b5b828201905092915050565b7f42616c616e636520696e636f7272656374000000000000000000000000000000600082015250565b6000610ee2601183610b86565b9150610eed82610eac565b602082019050919050565b60006020820190508181036000830152610f1181610ed5565b9050919050565b6000819050919050565b610f33610f2e8261081a565b610f18565b82525050565b600081519050919050565b600081905092915050565b60005b83811015610f6d578082015181840152602081019050610f52565b83811115610f7c576000848401525b50505050565b6000610f8d82610f39565b610f978185610f44565b9350610fa7818560208601610f4f565b80840191505092915050565b6000610fbf8287610f22565b602082019150610fcf8286610f22565b602082019150610fdf8285610f22565b602082019150610fef8284610f82565b91508190509594505050505056fea2646970667358221220d9059bcac2ef04bc13886b85a0537374453efd527ce9551a3bd242d51452012b64736f6c634300080d0033",
  "immutableReferences": {},
  "source": "//SPDX-License-Identifier: UNLICENSED\r\npragma solidity ^0.8.13;\r\nimport \"./ILabCoin.sol\";\r\ncontract Lottery {\r\n    event NewPlayerAdd(address _player);\r\n    event Winner(address _winner);\r\n    address[] private players;\r\n    address public owner;\r\n    ILabCoin private labCoin;\r\n\r\n    constructor(address _labCoin) {\r\n        owner = msg.sender;\r\n        labCoin = ILabCoin(_labCoin);\r\n    }\r\n\r\n    modifier onlyOwner() {\r\n        require(msg.sender == owner, \"Nops, only the owner\");\r\n        _;\r\n    }\r\n\r\n    function getBalance() public view returns (uint256) {\r\n        return labCoin.balanceOf(address(this));\r\n    }\r\n\r\n    function getPlayers() external view returns(address[] memory){\r\n        return players;\r\n    }\r\n\r\n    function enter() external {\r\n        uint balanceBefore = getBalance();\r\n        labCoin.transferFrom(msg.sender,address(this), 200e18); \r\n        require(balanceBefore+200e18 ==  getBalance(),\"Balance incorrect\");\r\n        players.push(msg.sender);\r\n        emit NewPlayerAdd(msg.sender);\r\n    }\r\n\r\n    function pickWinner(string memory _secretWord) external onlyOwner {\r\n        require (players.length >= 3);\r\n        uint _balance = getBalance();\r\n        \r\n        uint number = pseudoRandomNumber(_secretWord);\r\n        uint index = number % players.length;\r\n        address winner = players[index];\r\n        uint managerFee = (_balance * 10 ) / 100;\r\n        uint winnerPrize = (_balance * 90 ) / 100;\r\n\r\n        labCoin.transfer(winner, winnerPrize);\r\n        labCoin.transfer(owner, managerFee);\r\n        \r\n        players = new address[](0);\r\n        emit Winner(winner);\r\n        \r\n    }\r\n\r\n    function pseudoRandomNumber(string memory _secretWord)\r\n        internal\r\n        view\r\n        returns (uint256)\r\n    {\r\n        return\r\n            uint256(\r\n                keccak256(\r\n                    abi.encodePacked(\r\n                        block.difficulty,\r\n                        block.timestamp,\r\n                        players.length,\r\n                        _secretWord\r\n                    )\r\n                )\r\n            );\r\n    }\r\n}",
  "sourcePath": "D:\\GITHUB - PESSOAL\\Web3--Labs\\contracts\\Lottery.sol",
  "compiler": {
    "name": "solc",
    "version": "0.8.13+commit.abaa5c0e.Emscripten.clang"
  },
  "schemaVersion": "3.4.7",
  "updatedAt": "2022-06-09T15:14:17.233Z",
  "networkType": "ethereum",
  "devdoc": {
    "kind": "dev",
    "methods": {},
    "version": 1
  },
  "userdoc": {
    "kind": "user",
    "methods": {},
    "version": 1
  }
}