{
  "contractName": "Lottery",
  "abi": [
    {
      "inputs": [],
      "stateMutability": "nonpayable",
      "type": "constructor"
    },
    {
      "anonymous": false,
      "inputs": [
        {
          "indexed": false,
          "internalType": "address",
          "name": "_player",
          "type": "address"
        }
      ],
      "name": "NewPlayerAdd",
      "type": "event"
    },
    {
      "anonymous": false,
      "inputs": [
        {
          "indexed": false,
          "internalType": "address",
          "name": "_winner",
          "type": "address"
        }
      ],
      "name": "Winner",
      "type": "event"
    },
    {
      "inputs": [],
      "name": "owner",
      "outputs": [
        {
          "internalType": "address",
          "name": "",
          "type": "address"
        }
      ],
      "stateMutability": "view",
      "type": "function",
      "constant": true
    },
    {
      "inputs": [
        {
          "internalType": "uint256",
          "name": "",
          "type": "uint256"
        }
      ],
      "name": "players",
      "outputs": [
        {
          "internalType": "address payable",
          "name": "",
          "type": "address"
        }
      ],
      "stateMutability": "view",
      "type": "function",
      "constant": true
    },
    {
      "inputs": [],
      "name": "getBalance",
      "outputs": [
        {
          "internalType": "uint256",
          "name": "",
          "type": "uint256"
        }
      ],
      "stateMutability": "view",
      "type": "function",
      "constant": true
    },
    {
      "inputs": [],
      "name": "enter",
      "outputs": [],
      "stateMutability": "payable",
      "type": "function",
      "payable": true
    },
    {
      "inputs": [
        {
          "internalType": "string",
          "name": "_secretWord",
          "type": "string"
        }
      ],
      "name": "pickWinner",
      "outputs": [],
      "stateMutability": "nonpayable",
      "type": "function"
    }
  ],
  "bytecode": "0x608060405234801561001057600080fd5b5033600160006101000a81548173ffffffffffffffffffffffffffffffffffffffff021916908373ffffffffffffffffffffffffffffffffffffffff160217905550610df6806100616000396000f3fe60806040526004361061004a5760003560e01c806312065fe01461004f57806327e250691461007a5780638da5cb5b146100a3578063e97dcb62146100ce578063f71d96cb146100d8575b600080fd5b34801561005b57600080fd5b50610064610115565b60405161007191906106ce565b60405180910390f35b34801561008657600080fd5b506100a1600480360381019061009c9190610843565b61011d565b005b3480156100af57600080fd5b506100b8610486565b6040516100c591906108cd565b60405180910390f35b6100d66104ac565b005b3480156100e457600080fd5b506100ff60048036038101906100fa9190610914565b610591565b60405161010c9190610962565b60405180910390f35b600047905090565b600160009054906101000a900473ffffffffffffffffffffffffffffffffffffffff1673ffffffffffffffffffffffffffffffffffffffff163373ffffffffffffffffffffffffffffffffffffffff16146101ad576040517f08c379a00000000000000000000000000000000000000000000000000000000081526004016101a4906109da565b60405180910390fd5b600360008054905010156101c057600080fd5b6000806101cc836105d0565b905060008080549050826101e09190610a29565b9050600081815481106101f6576101f5610a5a565b5b9060005260206000200160009054906101000a900473ffffffffffffffffffffffffffffffffffffffff16925060006064600a610231610115565b61023b9190610ab8565b6102459190610b12565b905060006064605a610255610115565b61025f9190610ab8565b6102699190610b12565b905060008573ffffffffffffffffffffffffffffffffffffffff168260405161029190610b74565b60006040518083038185875af1925050503d80600081146102ce576040519150601f19603f3d011682016040523d82523d6000602084013e6102d3565b606091505b5050905080610317576040517f08c379a000000000000000000000000000000000000000000000000000000000815260040161030e90610bd5565b60405180910390fd5b6000600160009054906101000a900473ffffffffffffffffffffffffffffffffffffffff1673ffffffffffffffffffffffffffffffffffffffff168460405161035f90610b74565b60006040518083038185875af1925050503d806000811461039c576040519150601f19603f3d011682016040523d82523d6000602084013e6103a1565b606091505b50509050806103e5576040517f08c379a00000000000000000000000000000000000000000000000000000000081526004016103dc90610bd5565b60405180910390fd5b600067ffffffffffffffff811115610400576103ff610718565b5b60405190808252806020026020018201604052801561042e5781602001602082028036833780820191505090505b506000908051906020019061044492919061060e565b507f745c90b656b4aafe296c8ca35aeacfe56cb96c90e1d320e5da643fff1051b6c0876040516104749190610c54565b60405180910390a15050505050505050565b600160009054906101000a900473ffffffffffffffffffffffffffffffffffffffff1681565b6658d15e1762800034146104f5576040517f08c379a00000000000000000000000000000000000000000000000000000000081526004016104ec90610cbb565b60405180910390fd5b6000339080600181540180825580915050600190039060005260206000200160009091909190916101000a81548173ffffffffffffffffffffffffffffffffffffffff021916908373ffffffffffffffffffffffffffffffffffffffff1602179055507f50bc583ce0bd2268f96685d5504d7c50b940295c2e437d5e8f49f9ed9302b75d3360405161058791906108cd565b60405180910390a1565b600081815481106105a157600080fd5b906000526020600020016000915054906101000a900473ffffffffffffffffffffffffffffffffffffffff1681565b60004442600080549050846040516020016105ee9493929190610d76565b6040516020818303038152906040528051906020012060001c9050919050565b828054828255906000526020600020908101928215610687579160200282015b828111156106865782518260006101000a81548173ffffffffffffffffffffffffffffffffffffffff021916908373ffffffffffffffffffffffffffffffffffffffff1602179055509160200191906001019061062e565b5b5090506106949190610698565b5090565b5b808211156106b1576000816000905550600101610699565b5090565b6000819050919050565b6106c8816106b5565b82525050565b60006020820190506106e360008301846106bf565b92915050565b6000604051905090565b600080fd5b600080fd5b600080fd5b600080fd5b6000601f19601f8301169050919050565b7f4e487b7100000000000000000000000000000000000000000000000000000000600052604160045260246000fd5b61075082610707565b810181811067ffffffffffffffff8211171561076f5761076e610718565b5b80604052505050565b60006107826106e9565b905061078e8282610747565b919050565b600067ffffffffffffffff8211156107ae576107ad610718565b5b6107b782610707565b9050602081019050919050565b82818337600083830152505050565b60006107e66107e184610793565b610778565b90508281526020810184848401111561080257610801610702565b5b61080d8482856107c4565b509392505050565b600082601f83011261082a576108296106fd565b5b813561083a8482602086016107d3565b91505092915050565b600060208284031215610859576108586106f3565b5b600082013567ffffffffffffffff811115610877576108766106f8565b5b61088384828501610815565b91505092915050565b600073ffffffffffffffffffffffffffffffffffffffff82169050919050565b60006108b78261088c565b9050919050565b6108c7816108ac565b82525050565b60006020820190506108e260008301846108be565b92915050565b6108f1816106b5565b81146108fc57600080fd5b50565b60008135905061090e816108e8565b92915050565b60006020828403121561092a576109296106f3565b5b6000610938848285016108ff565b91505092915050565b600061094c8261088c565b9050919050565b61095c81610941565b82525050565b60006020820190506109776000830184610953565b92915050565b600082825260208201905092915050565b7f4e6f70732c206f6e6c7920746865206f776e6572000000000000000000000000600082015250565b60006109c460148361097d565b91506109cf8261098e565b602082019050919050565b600060208201905081810360008301526109f3816109b7565b9050919050565b7f4e487b7100000000000000000000000000000000000000000000000000000000600052601260045260246000fd5b6000610a34826106b5565b9150610a3f836106b5565b925082610a4f57610a4e6109fa565b5b828206905092915050565b7f4e487b7100000000000000000000000000000000000000000000000000000000600052603260045260246000fd5b7f4e487b7100000000000000000000000000000000000000000000000000000000600052601160045260246000fd5b6000610ac3826106b5565b9150610ace836106b5565b9250817fffffffffffffffffffffffffffffffffffffffffffffffffffffffffffffffff0483118215151615610b0757610b06610a89565b5b828202905092915050565b6000610b1d826106b5565b9150610b28836106b5565b925082610b3857610b376109fa565b5b828204905092915050565b600081905092915050565b50565b6000610b5e600083610b43565b9150610b6982610b4e565b600082019050919050565b6000610b7f82610b51565b9150819050919050565b7f4661696c65640000000000000000000000000000000000000000000000000000600082015250565b6000610bbf60068361097d565b9150610bca82610b89565b602082019050919050565b60006020820190508181036000830152610bee81610bb2565b9050919050565b6000819050919050565b6000610c1a610c15610c108461088c565b610bf5565b61088c565b9050919050565b6000610c2c82610bff565b9050919050565b6000610c3e82610c21565b9050919050565b610c4e81610c33565b82525050565b6000602082019050610c696000830184610c45565b92915050565b7f4661696c2e2053656e642074686520726967687420616d6f756e740000000000600082015250565b6000610ca5601b8361097d565b9150610cb082610c6f565b602082019050919050565b60006020820190508181036000830152610cd481610c98565b9050919050565b6000819050919050565b610cf6610cf1826106b5565b610cdb565b82525050565b600081519050919050565b600081905092915050565b60005b83811015610d30578082015181840152602081019050610d15565b83811115610d3f576000848401525b50505050565b6000610d5082610cfc565b610d5a8185610d07565b9350610d6a818560208601610d12565b80840191505092915050565b6000610d828287610ce5565b602082019150610d928286610ce5565b602082019150610da28285610ce5565b602082019150610db28284610d45565b91508190509594505050505056fea2646970667358221220f1ae970a3e3b4a0ae04c1c76c347df13332735ddbc70b78168f8466d08c82c8b64736f6c634300080d0033",
  "immutableReferences": {},
  "source": "//SPDX-License-Identifier: UNLICENSED\r\npragma solidity ^0.8.13;\r\n\r\ncontract Lottery {\r\n    event NewPlayerAdd(address _player);\r\n    event Winner(address _winner);\r\n    address payable[] public players;\r\n    address public owner;\r\n\r\n    constructor() {\r\n        owner = msg.sender;\r\n    }\r\n\r\n    modifier onlyOwner() {\r\n        require(msg.sender == owner, \"Nops, only the owner\");\r\n        _;\r\n    }\r\n\r\n    function getBalance() public view returns (uint256) {\r\n        return address(this).balance;\r\n    }\r\n\r\n    function enter() external payable {\r\n        require(msg.value == 0.025 ether, \"Fail. Send the right amount\");\r\n        players.push(payable(msg.sender));\r\n        emit NewPlayerAdd(msg.sender);\r\n    }\r\n\r\n    function pickWinner(string memory _secretWord) external onlyOwner {\r\n        require (players.length >= 3);\r\n        address payable winner;\r\n        uint number = pseudoRandomNumber(_secretWord);\r\n        uint index = number % players.length;\r\n        winner = players[index];\r\n        uint managerFee = (getBalance() * 10 ) / 100;\r\n        uint winnerPrize = (getBalance() * 90 ) / 100;\r\n\r\n        (bool success,) = winner.call{value:winnerPrize}(\"\");\r\n        require(success, \"Failed\");\r\n        (bool sent,) = payable(owner).call{value:managerFee}(\"\");\r\n        require(sent, \"Failed\");\r\n        players = new address payable[](0);\r\n        emit Winner(winner);\r\n        \r\n    }\r\n\r\n    function pseudoRandomNumber(string memory _secretWord)\r\n        internal\r\n        view\r\n        returns (uint256)\r\n    {\r\n        return\r\n            uint256(\r\n                keccak256(\r\n                    abi.encodePacked(\r\n                        block.difficulty,\r\n                        block.timestamp,\r\n                        players.length,\r\n                        _secretWord\r\n                    )\r\n                )\r\n            );\r\n    }\r\n}\r\n",
  "sourcePath": "C:\\Web3Lab\\Web3--Labs\\contracts\\Lottery.sol",
  "compiler": {
    "name": "solc",
    "version": "0.8.13+commit.abaa5c0e.Emscripten.clang"
  },
  "schemaVersion": "3.4.7",
  "updatedAt": "2022-05-25T22:15:39.040Z",
  "networkType": "ethereum",
  "devdoc": {
    "kind": "dev",
    "methods": {},
    "version": 1
  },
  "userdoc": {
    "kind": "user",
    "methods": {},
    "version": 1
  }
}