{
  "contractName": "Lottery",
  "abi": [
    {
      "inputs": [
        {
          "internalType": "address",
          "name": "_priceFeedAddress",
          "type": "address"
        }
      ],
      "stateMutability": "nonpayable",
      "type": "constructor"
    },
    {
      "anonymous": false,
      "inputs": [
        {
          "indexed": false,
          "internalType": "address",
          "name": "_player",
          "type": "address"
        }
      ],
      "name": "NewPlayerAdd",
      "type": "event"
    },
    {
      "inputs": [
        {
          "internalType": "uint256",
          "name": "",
          "type": "uint256"
        }
      ],
      "name": "players",
      "outputs": [
        {
          "internalType": "address",
          "name": "",
          "type": "address"
        }
      ],
      "stateMutability": "view",
      "type": "function"
    },
    {
      "inputs": [],
      "name": "usdEntryFee",
      "outputs": [
        {
          "internalType": "uint256",
          "name": "",
          "type": "uint256"
        }
      ],
      "stateMutability": "view",
      "type": "function"
    },
    {
      "inputs": [],
      "name": "enter",
      "outputs": [],
      "stateMutability": "payable",
      "type": "function"
    },
    {
      "inputs": [],
      "name": "getEntranceFee",
      "outputs": [
        {
          "internalType": "uint256",
          "name": "",
          "type": "uint256"
        }
      ],
      "stateMutability": "view",
      "type": "function"
    }
  ],
  "bytecode": "0x608060405234801561001057600080fd5b50604051610420380380610420833981810160405281019061003291906100eb565b674563918244f4000060018190555080600260006101000a81548173ffffffffffffffffffffffffffffffffffffffff021916908373ffffffffffffffffffffffffffffffffffffffff16021790555050610118565b600080fd5b600073ffffffffffffffffffffffffffffffffffffffff82169050919050565b60006100b88261008d565b9050919050565b6100c8816100ad565b81146100d357600080fd5b50565b6000815190506100e5816100bf565b92915050565b60006020828403121561010157610100610088565b5b600061010f848285016100d6565b91505092915050565b6102f9806101276000396000f3fe60806040526004361061003f5760003560e01c806309bc33a71461004457806388ab139a1461006f578063e97dcb621461009a578063f71d96cb146100a4575b600080fd5b34801561005057600080fd5b506100596100e1565b60405161006691906101ee565b60405180910390f35b34801561007b57600080fd5b506100846100e6565b60405161009191906101ee565b60405180910390f35b6100a26100ec565b005b3480156100b057600080fd5b506100cb60048036038101906100c6919061023a565b610196565b6040516100d891906102a8565b60405180910390f35b600090565b60015481565b61271034146100fa57600080fd5b6000339080600181540180825580915050600190039060005260206000200160009091909190916101000a81548173ffffffffffffffffffffffffffffffffffffffff021916908373ffffffffffffffffffffffffffffffffffffffff1602179055507f50bc583ce0bd2268f96685d5504d7c50b940295c2e437d5e8f49f9ed9302b75d3360405161018c91906102a8565b60405180910390a1565b600081815481106101a657600080fd5b906000526020600020016000915054906101000a900473ffffffffffffffffffffffffffffffffffffffff1681565b6000819050919050565b6101e8816101d5565b82525050565b600060208201905061020360008301846101df565b92915050565b600080fd5b610217816101d5565b811461022257600080fd5b50565b6000813590506102348161020e565b92915050565b6000602082840312156102505761024f610209565b5b600061025e84828501610225565b91505092915050565b600073ffffffffffffffffffffffffffffffffffffffff82169050919050565b600061029282610267565b9050919050565b6102a281610287565b82525050565b60006020820190506102bd6000830184610299565b9291505056fea264697066735822122085af0a8af87e150466e64937e3599a7fc2e5cff17bb022c8d29c0c366b94725064736f6c634300080d0033",
  "immutableReferences": {},
  "source": "//SPDX-License-Identifier: UNLICENSED\r\npragma solidity ^0.8.13;\r\n\r\nimport '@chainlink/contracts/src/v0.8/interfaces/AggregatorV3Interface.sol';\r\n\r\ncontract Lottery{\r\n    event NewPlayerAdd(address _player);\r\n    address[] public players;\r\n    uint public usdEntryFee;\r\n    AggregatorV3Interface internal ethUsdPriceFeed;\r\n\r\n    constructor(address _priceFeedAddress) {\r\n        usdEntryFee = 5*(10**18);\r\n        ethUsdPriceFeed = AggregatorV3Interface(_priceFeedAddress);\r\n    }\r\n\r\n    function enter() external payable{\r\n        require(msg.value == 10000 wei);\r\n        players.push(msg.sender);\r\n        emit NewPlayerAdd(msg.sender);\r\n    }\r\n    \r\n    function getEntranceFee() public view returns(uint) {\r\n        \r\n    }\r\n}\r\n\r\n",
  "sourcePath": "D:\\GITHUB - PESSOAL\\Web3--Labs\\contracts\\Lottery.sol",
  "compiler": {
    "name": "solc",
    "version": "0.8.13+commit.abaa5c0e.Emscripten.clang"
  },
  "schemaVersion": "3.4.7",
  "updatedAt": "2022-05-11T02:26:38.903Z",
  "devdoc": {
    "kind": "dev",
    "methods": {},
    "version": 1
  },
  "userdoc": {
    "kind": "user",
    "methods": {},
    "version": 1
  }
}